{
    "contractName": "AudioToken",
    "abi": [
        {
            "inputs": [],
            "stateMutability": "nonpayable",
            "type": "constructor"
        },
        {
            "anonymous": false,
            "inputs": [
                {
                    "indexed": true,
                    "internalType": "address",
                    "name": "owner",
                    "type": "address"
                },
                {
                    "indexed": true,
                    "internalType": "address",
                    "name": "approved",
                    "type": "address"
                },
                {
                    "indexed": true,
                    "internalType": "uint256",
                    "name": "tokenId",
                    "type": "uint256"
                }
            ],
            "name": "Approval",
            "type": "event"
        },
        {
            "anonymous": false,
            "inputs": [
                {
                    "indexed": true,
                    "internalType": "address",
                    "name": "owner",
                    "type": "address"
                },
                {
                    "indexed": true,
                    "internalType": "address",
                    "name": "operator",
                    "type": "address"
                },
                {
                    "indexed": false,
                    "internalType": "bool",
                    "name": "approved",
                    "type": "bool"
                }
            ],
            "name": "ApprovalForAll",
            "type": "event"
        },
        {
            "anonymous": false,
            "inputs": [
                {
                    "indexed": false,
                    "internalType": "uint256",
                    "name": "tokenId",
                    "type": "uint256"
                },
                {
                    "indexed": false,
                    "internalType": "string",
                    "name": "audioMultiHash",
                    "type": "string"
                }
            ],
            "name": "AudioTokenMinted",
            "type": "event"
        },
        {
            "anonymous": false,
            "inputs": [
                {
                    "indexed": true,
                    "internalType": "address",
                    "name": "previousOwner",
                    "type": "address"
                },
                {
                    "indexed": true,
                    "internalType": "address",
                    "name": "newOwner",
                    "type": "address"
                }
            ],
            "name": "OwnershipTransferred",
            "type": "event"
        },
        {
            "anonymous": false,
            "inputs": [
                {
                    "indexed": false,
                    "internalType": "address",
                    "name": "account",
                    "type": "address"
                }
            ],
            "name": "Paused",
            "type": "event"
        },
        {
            "anonymous": false,
            "inputs": [
                {
                    "indexed": true,
                    "internalType": "address",
                    "name": "from",
                    "type": "address"
                },
                {
                    "indexed": true,
                    "internalType": "address",
                    "name": "to",
                    "type": "address"
                },
                {
                    "indexed": true,
                    "internalType": "uint256",
                    "name": "tokenId",
                    "type": "uint256"
                }
            ],
            "name": "Transfer",
            "type": "event"
        },
        {
            "anonymous": false,
            "inputs": [
                {
                    "indexed": false,
                    "internalType": "address",
                    "name": "account",
                    "type": "address"
                }
            ],
            "name": "Unpaused",
            "type": "event"
        },
        {
            "inputs": [
                {
                    "internalType": "address",
                    "name": "to",
                    "type": "address"
                },
                {
                    "internalType": "uint256",
                    "name": "tokenId",
                    "type": "uint256"
                }
            ],
            "name": "approve",
            "outputs": [],
            "stateMutability": "nonpayable",
            "type": "function"
        },
        {
            "inputs": [
                {
                    "internalType": "address",
                    "name": "owner",
                    "type": "address"
                }
            ],
            "name": "balanceOf",
            "outputs": [
                {
                    "internalType": "uint256",
                    "name": "",
                    "type": "uint256"
                }
            ],
            "stateMutability": "view",
            "type": "function"
        },
        {
            "inputs": [
                {
                    "internalType": "uint256",
                    "name": "tokenId",
                    "type": "uint256"
                }
            ],
            "name": "getApproved",
            "outputs": [
                {
                    "internalType": "address",
                    "name": "",
                    "type": "address"
                }
            ],
            "stateMutability": "view",
            "type": "function"
        },
        {
            "inputs": [
                {
                    "internalType": "address",
                    "name": "owner",
                    "type": "address"
                },
                {
                    "internalType": "address",
                    "name": "operator",
                    "type": "address"
                }
            ],
            "name": "isApprovedForAll",
            "outputs": [
                {
                    "internalType": "bool",
                    "name": "",
                    "type": "bool"
                }
            ],
            "stateMutability": "view",
            "type": "function"
        },
        {
            "inputs": [
                {
                    "internalType": "string",
                    "name": "audioMultiHash",
                    "type": "string"
                },
                {
                    "internalType": "string",
                    "name": "uri",
                    "type": "string"
                }
            ],
            "name": "mint",
            "outputs": [],
            "stateMutability": "nonpayable",
            "type": "function"
        },
        {
            "inputs": [],
            "name": "name",
            "outputs": [
                {
                    "internalType": "string",
                    "name": "",
                    "type": "string"
                }
            ],
            "stateMutability": "view",
            "type": "function"
        },
        {
            "inputs": [],
            "name": "owner",
            "outputs": [
                {
                    "internalType": "address",
                    "name": "",
                    "type": "address"
                }
            ],
            "stateMutability": "view",
            "type": "function"
        },
        {
            "inputs": [
                {
                    "internalType": "uint256",
                    "name": "tokenId",
                    "type": "uint256"
                }
            ],
            "name": "ownerOf",
            "outputs": [
                {
                    "internalType": "address",
                    "name": "",
                    "type": "address"
                }
            ],
            "stateMutability": "view",
            "type": "function"
        },
        {
            "inputs": [],
            "name": "pause",
            "outputs": [],
            "stateMutability": "nonpayable",
            "type": "function"
        },
        {
            "inputs": [],
            "name": "paused",
            "outputs": [
                {
                    "internalType": "bool",
                    "name": "",
                    "type": "bool"
                }
            ],
            "stateMutability": "view",
            "type": "function"
        },
        {
            "inputs": [],
            "name": "renounceOwnership",
            "outputs": [],
            "stateMutability": "nonpayable",
            "type": "function"
        },
        {
            "inputs": [
                {
                    "internalType": "address",
                    "name": "from",
                    "type": "address"
                },
                {
                    "internalType": "address",
                    "name": "to",
                    "type": "address"
                },
                {
                    "internalType": "uint256",
                    "name": "tokenId",
                    "type": "uint256"
                }
            ],
            "name": "safeTransferFrom",
            "outputs": [],
            "stateMutability": "nonpayable",
            "type": "function"
        },
        {
            "inputs": [
                {
                    "internalType": "address",
                    "name": "from",
                    "type": "address"
                },
                {
                    "internalType": "address",
                    "name": "to",
                    "type": "address"
                },
                {
                    "internalType": "uint256",
                    "name": "tokenId",
                    "type": "uint256"
                },
                {
                    "internalType": "bytes",
                    "name": "data",
                    "type": "bytes"
                }
            ],
            "name": "safeTransferFrom",
            "outputs": [],
            "stateMutability": "nonpayable",
            "type": "function"
        },
        {
            "inputs": [
                {
                    "internalType": "address",
                    "name": "operator",
                    "type": "address"
                },
                {
                    "internalType": "bool",
                    "name": "approved",
                    "type": "bool"
                }
            ],
            "name": "setApprovalForAll",
            "outputs": [],
            "stateMutability": "nonpayable",
            "type": "function"
        },
        {
            "inputs": [
                {
                    "internalType": "bytes4",
                    "name": "interfaceId",
                    "type": "bytes4"
                }
            ],
            "name": "supportsInterface",
            "outputs": [
                {
                    "internalType": "bool",
                    "name": "",
                    "type": "bool"
                }
            ],
            "stateMutability": "view",
            "type": "function"
        },
        {
            "inputs": [],
            "name": "symbol",
            "outputs": [
                {
                    "internalType": "string",
                    "name": "",
                    "type": "string"
                }
            ],
            "stateMutability": "view",
            "type": "function"
        },
        {
            "inputs": [
                {
                    "internalType": "uint256",
                    "name": "tokenId",
                    "type": "uint256"
                }
            ],
            "name": "tokenURI",
            "outputs": [
                {
                    "internalType": "string",
                    "name": "",
                    "type": "string"
                }
            ],
            "stateMutability": "view",
            "type": "function"
        },
        {
            "inputs": [
                {
                    "internalType": "address",
                    "name": "from",
                    "type": "address"
                },
                {
                    "internalType": "address",
                    "name": "to",
                    "type": "address"
                },
                {
                    "internalType": "uint256",
                    "name": "tokenId",
                    "type": "uint256"
                }
            ],
            "name": "transferFrom",
            "outputs": [],
            "stateMutability": "nonpayable",
            "type": "function"
        },
        {
            "inputs": [
                {
                    "internalType": "address",
                    "name": "newOwner",
                    "type": "address"
                }
            ],
            "name": "transferOwnership",
            "outputs": [],
            "stateMutability": "nonpayable",
            "type": "function"
        },
        {
            "inputs": [],
            "name": "unpause",
            "outputs": [],
            "stateMutability": "nonpayable",
            "type": "function"
        }
    ],
    "bytecode": "60806040523480156200001157600080fd5b506040518060400160405280601981526020017f4d75666920417564696f2053616d706c65204d616e6167657200000000000000815250604051806040016040528060048152602001634d55464960e01b8152506200007f62000079620000b260201b60201c565b620000b6565b6000805460ff60a01b1916905560016200009a8382620001ab565b506002620000a98282620001ab565b50505062000277565b3390565b600080546001600160a01b038381166001600160a01b0319831681178455604051919092169283917f8be0079c531659141344cd1fd0a4f28419497f9722a3daafe3b4186f6b6457e09190a35050565b634e487b7160e01b600052604160045260246000fd5b600181811c908216806200013157607f821691505b6020821081036200015257634e487b7160e01b600052602260045260246000fd5b50919050565b601f821115620001a657600081815260208120601f850160051c81016020861015620001815750805b601f850160051c820191505b81811015620001a2578281556001016200018d565b5050505b505050565b81516001600160401b03811115620001c757620001c762000106565b620001df81620001d884546200011c565b8462000158565b602080601f831160018114620002175760008415620001fe5750858301515b600019600386901b1c1916600185901b178555620001a2565b600085815260208120601f198616915b82811015620002485788860151825594840194600190910190840162000227565b5085821015620002675787850151600019600388901b60f8161c191681555b5050505050600190811b01905550565b61174f80620002876000396000f3fe608060405234801561001057600080fd5b506004361061012c5760003560e01c8063715018a6116100ad578063a22cb46511610071578063a22cb4651461025e578063b88d4fde14610271578063c87b56dd14610284578063e985e9c514610297578063f2fde38b146102aa57600080fd5b8063715018a6146102225780638456cb591461022a5780638aa0fdad146102325780638da5cb5b1461024557806395d89b411461025657600080fd5b80633f4ba83a116100f45780633f4ba83a146101c157806342842e0e146101c95780635c975abb146101dc5780636352211e146101ee57806370a082311461020157600080fd5b806301ffc9a71461013157806306fdde0314610159578063081812fc1461016e578063095ea7b31461019957806323b872dd146101ae575b600080fd5b61014461013f36600461106c565b6102bd565b60405190151581526020015b60405180910390f35b61016161030f565b60405161015091906110d9565b61018161017c3660046110ec565b6103a1565b6040516001600160a01b039091168152602001610150565b6101ac6101a7366004611121565b6103c8565b005b6101ac6101bc36600461114b565b6104e2565b6101ac610513565b6101ac6101d736600461114b565b610525565b600054600160a01b900460ff16610144565b6101816101fc3660046110ec565b610540565b61021461020f366004611187565b6105a0565b604051908152602001610150565b6101ac610626565b6101ac610638565b6101ac6102403660046111eb565b610648565b6000546001600160a01b0316610181565b61016161073b565b6101ac61026c366004611257565b61074a565b6101ac61027f3660046112a9565b610759565b6101616102923660046110ec565b610791565b6101446102a5366004611385565b610805565b6101ac6102b8366004611187565b610833565b60006001600160e01b031982166380ac58cd60e01b14806102ee57506001600160e01b03198216635b5e139f60e01b145b8061030957506301ffc9a760e01b6001600160e01b03198316145b92915050565b60606001805461031e906113b8565b80601f016020809104026020016040519081016040528092919081815260200182805461034a906113b8565b80156103975780601f1061036c57610100808354040283529160200191610397565b820191906000526020600020905b81548152906001019060200180831161037a57829003601f168201915b5050505050905090565b60006103ac826108ac565b506000908152600560205260409020546001600160a01b031690565b60006103d382610540565b9050806001600160a01b0316836001600160a01b0316036104455760405162461bcd60e51b815260206004820152602160248201527f4552433732313a20617070726f76616c20746f2063757272656e74206f776e656044820152603960f91b60648201526084015b60405180910390fd5b336001600160a01b038216148061046157506104618133610805565b6104d35760405162461bcd60e51b815260206004820152603e60248201527f4552433732313a20617070726f76652063616c6c6572206973206e6f7420746f60448201527f6b656e206f776e6572206e6f7220617070726f76656420666f7220616c6c0000606482015260840161043c565b6104dd838361090b565b505050565b6104ec3382610979565b6105085760405162461bcd60e51b815260040161043c906113f2565b6104dd8383836109d8565b61051b610b74565b610523610bce565b565b6104dd83838360405180602001604052806000815250610759565b6000818152600360205260408120546001600160a01b0316806103095760405162461bcd60e51b8152602060048201526018602482015277115490cdcc8c4e881a5b9d985b1a59081d1bdad95b88125160421b604482015260640161043c565b60006001600160a01b03821661060a5760405162461bcd60e51b815260206004820152602960248201527f4552433732313a2061646472657373207a65726f206973206e6f7420612076616044820152683634b21037bbb732b960b91b606482015260840161043c565b506001600160a01b031660009081526004602052604090205490565b61062e610b74565b6105236000610c23565b610640610b74565b610523610c73565b6000848460405160200161065d929190611440565b60408051601f198184030181529181528151602092830120600081815260079093529120805491925090610690906113b8565b1590506106df5760405162461bcd60e51b815260206004820152601960248201527f53616d706c6520616c7265616479207265676973746572656400000000000000604482015260640161043c565b60008181526007602052604090206106f883858361149e565b507fb94af393480bf1434fa5a15fd931bec8671581cb53cdd328dce32c8cd947132681868660405161072c9392919061155f565b60405180910390a15050505050565b60606002805461031e906113b8565b610755338383610cb6565b5050565b6107633383610979565b61077f5760405162461bcd60e51b815260040161043c906113f2565b61078b84848484610d84565b50505050565b606061079c826108ac565b60006107b360408051602081019091526000815290565b905060008151116107d357604051806020016040528060008152506107fe565b806107dd84610db7565b6040516020016107ee929190611595565b6040516020818303038152906040525b9392505050565b6001600160a01b03918216600090815260066020908152604080832093909416825291909152205460ff1690565b61083b610b74565b6001600160a01b0381166108a05760405162461bcd60e51b815260206004820152602660248201527f4f776e61626c653a206e6577206f776e657220697320746865207a65726f206160448201526564647265737360d01b606482015260840161043c565b6108a981610c23565b50565b6000818152600360205260409020546001600160a01b03166108a95760405162461bcd60e51b8152602060048201526018602482015277115490cdcc8c4e881a5b9d985b1a59081d1bdad95b88125160421b604482015260640161043c565b600081815260056020526040902080546001600160a01b0319166001600160a01b038416908117909155819061094082610540565b6001600160a01b03167f8c5be1e5ebec7d5bd14f71427d1e84f3dd0314c0f7b2291e5b200ac8c7c3b92560405160405180910390a45050565b60008061098583610540565b9050806001600160a01b0316846001600160a01b031614806109ac57506109ac8185610805565b806109d05750836001600160a01b03166109c5846103a1565b6001600160a01b0316145b949350505050565b826001600160a01b03166109eb82610540565b6001600160a01b031614610a4f5760405162461bcd60e51b815260206004820152602560248201527f4552433732313a207472616e736665722066726f6d20696e636f72726563742060448201526437bbb732b960d91b606482015260840161043c565b6001600160a01b038216610ab15760405162461bcd60e51b8152602060048201526024808201527f4552433732313a207472616e7366657220746f20746865207a65726f206164646044820152637265737360e01b606482015260840161043c565b610abc60008261090b565b6001600160a01b0383166000908152600460205260408120805460019290610ae59084906115da565b90915550506001600160a01b0382166000908152600460205260408120805460019290610b139084906115ed565b909155505060008181526003602052604080822080546001600160a01b0319166001600160a01b0386811691821790925591518493918716917fddf252ad1be2c89b69c2b068fc378daa952ba7f163c4a11628f55a4df523b3ef91a4505050565b6000546001600160a01b031633146105235760405162461bcd60e51b815260206004820181905260248201527f4f776e61626c653a2063616c6c6572206973206e6f7420746865206f776e6572604482015260640161043c565b610bd6610eb8565b6000805460ff60a01b191690557f5db9ee0a495bf2e6ff9c91a7834c1ba4fdd244a5e8aa4e537bd38aeae4b073aa335b6040516001600160a01b03909116815260200160405180910390a1565b600080546001600160a01b038381166001600160a01b0319831681178455604051919092169283917f8be0079c531659141344cd1fd0a4f28419497f9722a3daafe3b4186f6b6457e09190a35050565b610c7b610f08565b6000805460ff60a01b1916600160a01b1790557f62e78cea01bee320cd4e420270b5ea74000d11b0c9f74754ebdbfc544b05a258610c063390565b816001600160a01b0316836001600160a01b031603610d175760405162461bcd60e51b815260206004820152601960248201527f4552433732313a20617070726f766520746f2063616c6c657200000000000000604482015260640161043c565b6001600160a01b03838116600081815260066020908152604080832094871680845294825291829020805460ff191686151590811790915591519182527f17307eab39ab6107e8899845ad3d59bd9653f200f220920489ca2b5937696c31910160405180910390a3505050565b610d8f8484846109d8565b610d9b84848484610f55565b61078b5760405162461bcd60e51b815260040161043c90611600565b606081600003610dde5750506040805180820190915260018152600360fc1b602082015290565b8160005b8115610e085780610df281611652565b9150610e019050600a83611681565b9150610de2565b60008167ffffffffffffffff811115610e2357610e23611293565b6040519080825280601f01601f191660200182016040528015610e4d576020820181803683370190505b5090505b84156109d057610e626001836115da565b9150610e6f600a86611695565b610e7a9060306115ed565b60f81b818381518110610e8f57610e8f6116a9565b60200101906001600160f81b031916908160001a905350610eb1600a86611681565b9450610e51565b600054600160a01b900460ff166105235760405162461bcd60e51b815260206004820152601460248201527314185d5cd8589b194e881b9bdd081c185d5cd95960621b604482015260640161043c565b600054600160a01b900460ff16156105235760405162461bcd60e51b815260206004820152601060248201526f14185d5cd8589b194e881c185d5cd95960821b604482015260640161043c565b60006001600160a01b0384163b1561104b57604051630a85bd0160e11b81526001600160a01b0385169063150b7a0290610f999033908990889088906004016116bf565b6020604051808303816000875af1925050508015610fd4575060408051601f3d908101601f19168201909252610fd1918101906116fc565b60015b611031573d808015611002576040519150601f19603f3d011682016040523d82523d6000602084013e611007565b606091505b5080516000036110295760405162461bcd60e51b815260040161043c90611600565b805181602001fd5b6001600160e01b031916630a85bd0160e11b1490506109d0565b506001949350505050565b6001600160e01b0319811681146108a957600080fd5b60006020828403121561107e57600080fd5b81356107fe81611056565b60005b838110156110a457818101518382015260200161108c565b50506000910152565b600081518084526110c5816020860160208601611089565b601f01601f19169290920160200192915050565b6020815260006107fe60208301846110ad565b6000602082840312156110fe57600080fd5b5035919050565b80356001600160a01b038116811461111c57600080fd5b919050565b6000806040838503121561113457600080fd5b61113d83611105565b946020939093013593505050565b60008060006060848603121561116057600080fd5b61116984611105565b925061117760208501611105565b9150604084013590509250925092565b60006020828403121561119957600080fd5b6107fe82611105565b60008083601f8401126111b457600080fd5b50813567ffffffffffffffff8111156111cc57600080fd5b6020830191508360208285010111156111e457600080fd5b9250929050565b6000806000806040858703121561120157600080fd5b843567ffffffffffffffff8082111561121957600080fd5b611225888389016111a2565b9096509450602087013591508082111561123e57600080fd5b5061124b878288016111a2565b95989497509550505050565b6000806040838503121561126a57600080fd5b61127383611105565b91506020830135801515811461128857600080fd5b809150509250929050565b634e487b7160e01b600052604160045260246000fd5b600080600080608085870312156112bf57600080fd5b6112c885611105565b93506112d660208601611105565b925060408501359150606085013567ffffffffffffffff808211156112fa57600080fd5b818701915087601f83011261130e57600080fd5b81358181111561132057611320611293565b604051601f8201601f19908116603f0116810190838211818310171561134857611348611293565b816040528281528a602084870101111561136157600080fd5b82602086016020830137600060208483010152809550505050505092959194509250565b6000806040838503121561139857600080fd5b6113a183611105565b91506113af60208401611105565b90509250929050565b600181811c908216806113cc57607f821691505b6020821081036113ec57634e487b7160e01b600052602260045260246000fd5b50919050565b6020808252602e908201527f4552433732313a2063616c6c6572206973206e6f7420746f6b656e206f776e6560408201526d1c881b9bdc88185c1c1c9bdd995960921b606082015260800190565b8183823760009101908152919050565b601f8211156104dd57600081815260208120601f850160051c810160208610156114775750805b601f850160051c820191505b8181101561149657828155600101611483565b505050505050565b67ffffffffffffffff8311156114b6576114b6611293565b6114ca836114c483546113b8565b83611450565b6000601f8411600181146114fe57600085156114e65750838201355b600019600387901b1c1916600186901b178355611558565b600083815260209020601f19861690835b8281101561152f578685013582556020948501946001909201910161150f565b508682101561154c5760001960f88860031b161c19848701351681555b505060018560011b0183555b5050505050565b83815260406020820152816040820152818360608301376000818301606090810191909152601f909201601f1916010192915050565b600083516115a7818460208801611089565b8351908301906115bb818360208801611089565b01949350505050565b634e487b7160e01b600052601160045260246000fd5b81810381811115610309576103096115c4565b80820180821115610309576103096115c4565b60208082526032908201527f4552433732313a207472616e7366657220746f206e6f6e20455243373231526560408201527131b2b4bb32b91034b6b83632b6b2b73a32b960711b606082015260800190565b600060018201611664576116646115c4565b5060010190565b634e487b7160e01b600052601260045260246000fd5b6000826116905761169061166b565b500490565b6000826116a4576116a461166b565b500690565b634e487b7160e01b600052603260045260246000fd5b6001600160a01b03858116825284166020820152604081018390526080606082018190526000906116f2908301846110ad565b9695505050505050565b60006020828403121561170e57600080fd5b81516107fe8161105656fea264697066735822122012e9d19b25880c3c7af38e0a2f1071b112804ef407fb951cf196da5513f9931164736f6c63430008110033",
    "sourcePath": "/home/jeegeet/Project/experiments/projects/mufi/HardHat1/contracts/AudioNft.sol",
    "compiler": {
        "name": "solc",
        "version": "0.8.17+commit.8df45f5f"
    },
    "functionHashes": {
        "approve(address,uint256)": "095ea7b3",
        "balanceOf(address)": "70a08231",
        "getApproved(uint256)": "081812fc",
        "isApprovedForAll(address,address)": "e985e9c5",
        "mint(string,string)": "8aa0fdad",
        "name()": "06fdde03",
        "owner()": "8da5cb5b",
        "ownerOf(uint256)": "6352211e",
        "pause()": "8456cb59",
        "paused()": "5c975abb",
        "renounceOwnership()": "715018a6",
        "safeTransferFrom(address,address,uint256)": "42842e0e",
        "safeTransferFrom(address,address,uint256,bytes)": "b88d4fde",
        "setApprovalForAll(address,bool)": "a22cb465",
        "supportsInterface(bytes4)": "01ffc9a7",
        "symbol()": "95d89b41",
        "tokenURI(uint256)": "c87b56dd",
        "transferFrom(address,address,uint256)": "23b872dd",
        "transferOwnership(address)": "f2fde38b",
        "unpause()": "3f4ba83a"
    },
    "gasEstimates": {
        "creation": {
            "codeDepositCost": "1193400",
            "executionCost": "infinite",
            "totalCost": "infinite"
        },
        "external": {
            "approve(address,uint256)": "infinite",
            "balanceOf(address)": "2700",
            "getApproved(uint256)": "4792",
            "isApprovedForAll(address,address)": "infinite",
            "mint(string,string)": "infinite",
            "name()": "infinite",
            "owner()": "2420",
            "ownerOf(uint256)": "2627",
            "pause()": "infinite",
            "paused()": "2377",
            "renounceOwnership()": "infinite",
            "safeTransferFrom(address,address,uint256)": "infinite",
            "safeTransferFrom(address,address,uint256,bytes)": "infinite",
            "setApprovalForAll(address,bool)": "26705",
            "supportsInterface(bytes4)": "534",
            "symbol()": "infinite",
            "tokenURI(uint256)": "infinite",
            "transferFrom(address,address,uint256)": "infinite",
            "transferOwnership(address)": "28443",
            "unpause()": "infinite"
        }
    }
}