{
    "contractName": "AudioNft",
    "abi": [
        {
            "anonymous": false,
            "inputs": [
                {
                    "indexed": false,
                    "internalType": "uint256",
                    "name": "tokenId",
                    "type": "uint256"
                },
                {
                    "indexed": false,
                    "internalType": "string",
                    "name": "audioMultiHash",
                    "type": "string"
                }
            ],
            "name": "AudioTokenMinted",
            "type": "event"
        },
        {
            "inputs": [
                {
                    "internalType": "string",
                    "name": "audioMultiHash",
                    "type": "string"
                },
                {
                    "internalType": "string",
                    "name": "uri",
                    "type": "string"
                }
            ],
            "name": "mint",
            "outputs": [],
            "stateMutability": "nonpayable",
            "type": "function"
        }
    ],
    "bytecode": "608060405234801561001057600080fd5b50610360806100206000396000f3fe608060405234801561001057600080fd5b506004361061002b5760003560e01c80638aa0fdad14610030575b600080fd5b61004361003e366004610118565b610045565b005b6000848460405160200161005a929190610184565b60408051601f19818403018152918152815160209283012060008181526001909352912090915061008c838583610233565b507fb94af393480bf1434fa5a15fd931bec8671581cb53cdd328dce32c8cd94713268186866040516100c0939291906102f4565b60405180910390a15050505050565b60008083601f8401126100e157600080fd5b50813567ffffffffffffffff8111156100f957600080fd5b60208301915083602082850101111561011157600080fd5b9250929050565b6000806000806040858703121561012e57600080fd5b843567ffffffffffffffff8082111561014657600080fd5b610152888389016100cf565b9096509450602087013591508082111561016b57600080fd5b50610178878288016100cf565b95989497509550505050565b8183823760009101908152919050565b634e487b7160e01b600052604160045260246000fd5b600181811c908216806101be57607f821691505b6020821081036101de57634e487b7160e01b600052602260045260246000fd5b50919050565b601f82111561022e57600081815260208120601f850160051c8101602086101561020b5750805b601f850160051c820191505b8181101561022a57828155600101610217565b5050505b505050565b67ffffffffffffffff83111561024b5761024b610194565b61025f8361025983546101aa565b836101e4565b6000601f841160018114610293576000851561027b5750838201355b600019600387901b1c1916600186901b1783556102ed565b600083815260209020601f19861690835b828110156102c457868501358255602094850194600190920191016102a4565b50868210156102e15760001960f88860031b161c19848701351681555b505060018560011b0183555b5050505050565b83815260406020820152816040820152818360608301376000818301606090810191909152601f909201601f191601019291505056fea2646970667358221220d0b4cf0b84eac696c1d4c4a06052485abfd3d4c297d15b142df442a91c20a7a264736f6c63430008110033",
    "sourcePath": "/home/jeegeet/Project/experiments/projects/mufi/HardHat1/contracts/AudioNft.sol",
    "compiler": {
        "name": "solc",
        "version": "0.8.17+commit.8df45f5f"
    },
    "functionHashes": {
        "mint(string,string)": "8aa0fdad"
    },
    "gasEstimates": {
        "creation": {
            "codeDepositCost": "172800",
            "executionCost": "214",
            "totalCost": "173014"
        },
        "external": {
            "mint(string,string)": "infinite"
        }
    }
}