{
    "contractName": "AudioSampleManager",
    "abi": [
        {
            "inputs": [],
            "stateMutability": "nonpayable",
            "type": "constructor"
        },
        {
            "anonymous": false,
            "inputs": [
                {
                    "indexed": true,
                    "internalType": "address",
                    "name": "owner",
                    "type": "address"
                },
                {
                    "indexed": true,
                    "internalType": "address",
                    "name": "approved",
                    "type": "address"
                },
                {
                    "indexed": true,
                    "internalType": "uint256",
                    "name": "tokenId",
                    "type": "uint256"
                }
            ],
            "name": "Approval",
            "type": "event"
        },
        {
            "anonymous": false,
            "inputs": [
                {
                    "indexed": true,
                    "internalType": "address",
                    "name": "owner",
                    "type": "address"
                },
                {
                    "indexed": true,
                    "internalType": "address",
                    "name": "operator",
                    "type": "address"
                },
                {
                    "indexed": false,
                    "internalType": "bool",
                    "name": "approved",
                    "type": "bool"
                }
            ],
            "name": "ApprovalForAll",
            "type": "event"
        },
        {
            "anonymous": false,
            "inputs": [
                {
                    "indexed": true,
                    "internalType": "address",
                    "name": "previousOwner",
                    "type": "address"
                },
                {
                    "indexed": true,
                    "internalType": "address",
                    "name": "newOwner",
                    "type": "address"
                }
            ],
            "name": "OwnershipTransferred",
            "type": "event"
        },
        {
            "anonymous": false,
            "inputs": [
                {
                    "indexed": false,
                    "internalType": "address",
                    "name": "account",
                    "type": "address"
                }
            ],
            "name": "Paused",
            "type": "event"
        },
        {
            "anonymous": false,
            "inputs": [
                {
                    "indexed": true,
                    "internalType": "address",
                    "name": "from",
                    "type": "address"
                },
                {
                    "indexed": true,
                    "internalType": "address",
                    "name": "to",
                    "type": "address"
                },
                {
                    "indexed": true,
                    "internalType": "uint256",
                    "name": "tokenId",
                    "type": "uint256"
                }
            ],
            "name": "Transfer",
            "type": "event"
        },
        {
            "anonymous": false,
            "inputs": [
                {
                    "indexed": false,
                    "internalType": "address",
                    "name": "account",
                    "type": "address"
                }
            ],
            "name": "Unpaused",
            "type": "event"
        },
        {
            "inputs": [
                {
                    "internalType": "address",
                    "name": "to",
                    "type": "address"
                },
                {
                    "internalType": "uint256",
                    "name": "tokenId",
                    "type": "uint256"
                }
            ],
            "name": "approve",
            "outputs": [],
            "stateMutability": "nonpayable",
            "type": "function"
        },
        {
            "inputs": [
                {
                    "internalType": "address",
                    "name": "owner",
                    "type": "address"
                }
            ],
            "name": "balanceOf",
            "outputs": [
                {
                    "internalType": "uint256",
                    "name": "",
                    "type": "uint256"
                }
            ],
            "stateMutability": "view",
            "type": "function"
        },
        {
            "inputs": [
                {
                    "internalType": "uint256",
                    "name": "tokenId",
                    "type": "uint256"
                }
            ],
            "name": "getApproved",
            "outputs": [
                {
                    "internalType": "address",
                    "name": "",
                    "type": "address"
                }
            ],
            "stateMutability": "view",
            "type": "function"
        },
        {
            "inputs": [
                {
                    "internalType": "address",
                    "name": "owner",
                    "type": "address"
                },
                {
                    "internalType": "address",
                    "name": "operator",
                    "type": "address"
                }
            ],
            "name": "isApprovedForAll",
            "outputs": [
                {
                    "internalType": "bool",
                    "name": "",
                    "type": "bool"
                }
            ],
            "stateMutability": "view",
            "type": "function"
        },
        {
            "inputs": [
                {
                    "internalType": "string",
                    "name": "audioMultiHash",
                    "type": "string"
                },
                {
                    "internalType": "string",
                    "name": "uri",
                    "type": "string"
                }
            ],
            "name": "mint",
            "outputs": [],
            "stateMutability": "nonpayable",
            "type": "function"
        },
        {
            "inputs": [],
            "name": "name",
            "outputs": [
                {
                    "internalType": "string",
                    "name": "",
                    "type": "string"
                }
            ],
            "stateMutability": "view",
            "type": "function"
        },
        {
            "inputs": [],
            "name": "owner",
            "outputs": [
                {
                    "internalType": "address",
                    "name": "",
                    "type": "address"
                }
            ],
            "stateMutability": "view",
            "type": "function"
        },
        {
            "inputs": [
                {
                    "internalType": "uint256",
                    "name": "tokenId",
                    "type": "uint256"
                }
            ],
            "name": "ownerOf",
            "outputs": [
                {
                    "internalType": "address",
                    "name": "",
                    "type": "address"
                }
            ],
            "stateMutability": "view",
            "type": "function"
        },
        {
            "inputs": [],
            "name": "pause",
            "outputs": [],
            "stateMutability": "nonpayable",
            "type": "function"
        },
        {
            "inputs": [],
            "name": "paused",
            "outputs": [
                {
                    "internalType": "bool",
                    "name": "",
                    "type": "bool"
                }
            ],
            "stateMutability": "view",
            "type": "function"
        },
        {
            "inputs": [],
            "name": "renounceOwnership",
            "outputs": [],
            "stateMutability": "nonpayable",
            "type": "function"
        },
        {
            "inputs": [
                {
                    "internalType": "address",
                    "name": "from",
                    "type": "address"
                },
                {
                    "internalType": "address",
                    "name": "to",
                    "type": "address"
                },
                {
                    "internalType": "uint256",
                    "name": "tokenId",
                    "type": "uint256"
                }
            ],
            "name": "safeTransferFrom",
            "outputs": [],
            "stateMutability": "nonpayable",
            "type": "function"
        },
        {
            "inputs": [
                {
                    "internalType": "address",
                    "name": "from",
                    "type": "address"
                },
                {
                    "internalType": "address",
                    "name": "to",
                    "type": "address"
                },
                {
                    "internalType": "uint256",
                    "name": "tokenId",
                    "type": "uint256"
                },
                {
                    "internalType": "bytes",
                    "name": "data",
                    "type": "bytes"
                }
            ],
            "name": "safeTransferFrom",
            "outputs": [],
            "stateMutability": "nonpayable",
            "type": "function"
        },
        {
            "inputs": [
                {
                    "internalType": "address",
                    "name": "operator",
                    "type": "address"
                },
                {
                    "internalType": "bool",
                    "name": "approved",
                    "type": "bool"
                }
            ],
            "name": "setApprovalForAll",
            "outputs": [],
            "stateMutability": "nonpayable",
            "type": "function"
        },
        {
            "inputs": [
                {
                    "internalType": "bytes4",
                    "name": "interfaceId",
                    "type": "bytes4"
                }
            ],
            "name": "supportsInterface",
            "outputs": [
                {
                    "internalType": "bool",
                    "name": "",
                    "type": "bool"
                }
            ],
            "stateMutability": "view",
            "type": "function"
        },
        {
            "inputs": [],
            "name": "symbol",
            "outputs": [
                {
                    "internalType": "string",
                    "name": "",
                    "type": "string"
                }
            ],
            "stateMutability": "view",
            "type": "function"
        },
        {
            "inputs": [
                {
                    "internalType": "uint256",
                    "name": "tokenId",
                    "type": "uint256"
                }
            ],
            "name": "tokenURI",
            "outputs": [
                {
                    "internalType": "string",
                    "name": "",
                    "type": "string"
                }
            ],
            "stateMutability": "view",
            "type": "function"
        },
        {
            "inputs": [
                {
                    "internalType": "address",
                    "name": "from",
                    "type": "address"
                },
                {
                    "internalType": "address",
                    "name": "to",
                    "type": "address"
                },
                {
                    "internalType": "uint256",
                    "name": "tokenId",
                    "type": "uint256"
                }
            ],
            "name": "transferFrom",
            "outputs": [],
            "stateMutability": "nonpayable",
            "type": "function"
        },
        {
            "inputs": [
                {
                    "internalType": "address",
                    "name": "newOwner",
                    "type": "address"
                }
            ],
            "name": "transferOwnership",
            "outputs": [],
            "stateMutability": "nonpayable",
            "type": "function"
        },
        {
            "inputs": [],
            "name": "unpause",
            "outputs": [],
            "stateMutability": "nonpayable",
            "type": "function"
        }
    ],
    "bytecode": "60806040523480156200001157600080fd5b506040518060400160405280601981526020017f4d75666920417564696f2053616d706c65204d616e6167657200000000000000815250604051806040016040528060048152602001634d55464960e01b8152506200007f62000079620000b260201b60201c565b620000b6565b6000805460ff60a01b1916905560016200009a8382620001ab565b506002620000a98282620001ab565b50505062000277565b3390565b600080546001600160a01b038381166001600160a01b0319831681178455604051919092169283917f8be0079c531659141344cd1fd0a4f28419497f9722a3daafe3b4186f6b6457e09190a35050565b634e487b7160e01b600052604160045260246000fd5b600181811c908216806200013157607f821691505b6020821081036200015257634e487b7160e01b600052602260045260246000fd5b50919050565b601f821115620001a657600081815260208120601f850160051c81016020861015620001815750805b601f850160051c820191505b81811015620001a2578281556001016200018d565b5050505b505050565b81516001600160401b03811115620001c757620001c762000106565b620001df81620001d884546200011c565b8462000158565b602080601f831160018114620002175760008415620001fe5750858301515b600019600386901b1c1916600185901b178555620001a2565b600085815260208120601f198616915b82811015620002485788860151825594840194600190910190840162000227565b5085821015620002675787850151600019600388901b60f8161c191681555b5050505050600190811b01905550565b61156280620002876000396000f3fe608060405234801561001057600080fd5b506004361061012c5760003560e01c8063715018a6116100ad578063a22cb46511610071578063a22cb4651461025e578063b88d4fde14610271578063c87b56dd1461027f578063e985e9c514610292578063f2fde38b146102ce57600080fd5b8063715018a6146102225780638456cb591461022a5780638aa0fdad146102325780638da5cb5b1461024557806395d89b411461025657600080fd5b80633f4ba83a116100f45780633f4ba83a146101c157806342842e0e146101c95780635c975abb146101dc5780636352211e146101ee57806370a082311461020157600080fd5b806301ffc9a71461013157806306fdde0314610159578063081812fc1461016e578063095ea7b31461019957806323b872dd146101ae575b600080fd5b61014461013f366004610faf565b6102e1565b60405190151581526020015b60405180910390f35b610161610333565b6040516101509190610ffd565b61018161017c366004611030565b6103c5565b6040516001600160a01b039091168152602001610150565b6101ac6101a7366004611065565b6103ec565b005b6101ac6101bc36600461108f565b610524565b6101ac61056c565b6101ac6101d736600461108f565b61057e565b600054600160a01b900460ff16610144565b6101816101fc366004611030565b610599565b61021461020f3660046110cb565b6105f9565b604051908152602001610150565b6101ac61067f565b6101ac610691565b6101ac61024036600461112f565b6106a1565b6000546001600160a01b0316610181565b610161610722565b6101ac61026c36600461119b565b610731565b6101ac6101bc3660046111ed565b61016161028d366004611030565b610740565b6101446102a03660046112c9565b6001600160a01b03918216600090815260066020908152604080832093909416825291909152205460ff1690565b6101ac6102dc3660046110cb565b610861565b60006001600160e01b031982166380ac58cd60e01b148061031257506001600160e01b03198216635b5e139f60e01b145b8061032d57506301ffc9a760e01b6001600160e01b03198316145b92915050565b606060018054610342906112fc565b80601f016020809104026020016040519081016040528092919081815260200182805461036e906112fc565b80156103bb5780601f10610390576101008083540402835291602001916103bb565b820191906000526020600020905b81548152906001019060200180831161039e57829003601f168201915b5050505050905090565b60006103d0826108da565b506000908152600560205260409020546001600160a01b031690565b60006103f782610599565b9050806001600160a01b0316836001600160a01b0316036104695760405162461bcd60e51b815260206004820152602160248201527f4552433732313a20617070726f76616c20746f2063757272656e74206f776e656044820152603960f91b60648201526084015b60405180910390fd5b336001600160a01b03821614806104a357506001600160a01b038116600090815260066020908152604080832033845290915290205460ff165b6105155760405162461bcd60e51b815260206004820152603e60248201527f4552433732313a20617070726f76652063616c6c6572206973206e6f7420746f60448201527f6b656e206f776e6572206e6f7220617070726f76656420666f7220616c6c00006064820152608401610460565b61051f8383610939565b505050565b60405162461bcd60e51b815260206004820152601960248201527f5472616e736665727320617265206e6f7420616c6c6f776564000000000000006044820152606401610460565b6105746109a7565b61057c610a01565b565b61051f83838360405180602001604052806000815250610524565b6000818152600360205260408120546001600160a01b03168061032d5760405162461bcd60e51b8152602060048201526018602482015277115490cdcc8c4e881a5b9d985b1a59081d1bdad95b88125160421b6044820152606401610460565b60006001600160a01b0382166106635760405162461bcd60e51b815260206004820152602960248201527f4552433732313a2061646472657373207a65726f206973206e6f7420612076616044820152683634b21037bbb732b960b91b6064820152608401610460565b506001600160a01b031660009081526004602052604090205490565b6106876109a7565b61057c6000610a56565b6106996109a7565b61057c610aa6565b600084846040516020016106b6929190611336565b6040516020818303038152906040528051906020012060001c90506106db3382610ae9565b61071b8184848080601f016020809104026020016040519081016040528093929190818152602001838380828437600092019190915250610c2b92505050565b5050505050565b606060028054610342906112fc565b61073c338383610cbe565b5050565b606061074b826108da565b60008281526007602052604081208054610764906112fc565b80601f0160208091040260200160405190810160405280929190818152602001828054610790906112fc565b80156107dd5780601f106107b2576101008083540402835291602001916107dd565b820191906000526020600020905b8154815290600101906020018083116107c057829003601f168201915b50505050509050600061080c6040805180820190915260098152686d75666935383a2f2f60b81b602082015290565b9050805160000361081e575092915050565b815115610850578082604051602001610838929190611346565b60405160208183030381529060405292505050919050565b61085984610d8c565b949350505050565b6108696109a7565b6001600160a01b0381166108ce5760405162461bcd60e51b815260206004820152602660248201527f4f776e61626c653a206e6577206f776e657220697320746865207a65726f206160448201526564647265737360d01b6064820152608401610460565b6108d781610a56565b50565b6000818152600360205260409020546001600160a01b03166108d75760405162461bcd60e51b8152602060048201526018602482015277115490cdcc8c4e881a5b9d985b1a59081d1bdad95b88125160421b6044820152606401610460565b600081815260056020526040902080546001600160a01b0319166001600160a01b038416908117909155819061096e82610599565b6001600160a01b03167f8c5be1e5ebec7d5bd14f71427d1e84f3dd0314c0f7b2291e5b200ac8c7c3b92560405160405180910390a45050565b6000546001600160a01b0316331461057c5760405162461bcd60e51b815260206004820181905260248201527f4f776e61626c653a2063616c6c6572206973206e6f7420746865206f776e65726044820152606401610460565b610a09610e11565b6000805460ff60a01b191690557f5db9ee0a495bf2e6ff9c91a7834c1ba4fdd244a5e8aa4e537bd38aeae4b073aa335b6040516001600160a01b03909116815260200160405180910390a1565b600080546001600160a01b038381166001600160a01b0319831681178455604051919092169283917f8be0079c531659141344cd1fd0a4f28419497f9722a3daafe3b4186f6b6457e09190a35050565b610aae610e61565b6000805460ff60a01b1916600160a01b1790557f62e78cea01bee320cd4e420270b5ea74000d11b0c9f74754ebdbfc544b05a258610a393390565b6001600160a01b038216610b3f5760405162461bcd60e51b815260206004820181905260248201527f4552433732313a206d696e7420746f20746865207a65726f20616464726573736044820152606401610460565b6000818152600360205260409020546001600160a01b031615610ba45760405162461bcd60e51b815260206004820152601c60248201527f4552433732313a20746f6b656e20616c7265616479206d696e746564000000006044820152606401610460565b6001600160a01b0382166000908152600460205260408120805460019290610bcd90849061138b565b909155505060008181526003602052604080822080546001600160a01b0319166001600160a01b03861690811790915590518392907fddf252ad1be2c89b69c2b068fc378daa952ba7f163c4a11628f55a4df523b3ef908290a45050565b6000828152600360205260409020546001600160a01b0316610ca65760405162461bcd60e51b815260206004820152602e60248201527f45524337323155524953746f726167653a2055524920736574206f66206e6f6e60448201526d32bc34b9ba32b73a103a37b5b2b760911b6064820152608401610460565b600082815260076020526040902061051f82826113ec565b816001600160a01b0316836001600160a01b031603610d1f5760405162461bcd60e51b815260206004820152601960248201527f4552433732313a20617070726f766520746f2063616c6c6572000000000000006044820152606401610460565b6001600160a01b03838116600081815260066020908152604080832094871680845294825291829020805460ff191686151590811790915591519182527f17307eab39ab6107e8899845ad3d59bd9653f200f220920489ca2b5937696c31910160405180910390a3505050565b6060610d97826108da565b6000610dbf6040805180820190915260098152686d75666935383a2f2f60b81b602082015290565b90506000815111610ddf5760405180602001604052806000815250610e0a565b80610de984610eae565b604051602001610dfa929190611346565b6040516020818303038152906040525b9392505050565b600054600160a01b900460ff1661057c5760405162461bcd60e51b815260206004820152601460248201527314185d5cd8589b194e881b9bdd081c185d5cd95960621b6044820152606401610460565b600054600160a01b900460ff161561057c5760405162461bcd60e51b815260206004820152601060248201526f14185d5cd8589b194e881c185d5cd95960821b6044820152606401610460565b606081600003610ed55750506040805180820190915260018152600360fc1b602082015290565b8160005b8115610eff5780610ee9816114ac565b9150610ef89050600a836114db565b9150610ed9565b60008167ffffffffffffffff811115610f1a57610f1a6111d7565b6040519080825280601f01601f191660200182016040528015610f44576020820181803683370190505b5090505b841561085957610f596001836114ef565b9150610f66600a86611502565b610f7190603061138b565b60f81b818381518110610f8657610f86611516565b60200101906001600160f81b031916908160001a905350610fa8600a866114db565b9450610f48565b600060208284031215610fc157600080fd5b81356001600160e01b031981168114610e0a57600080fd5b60005b83811015610ff4578181015183820152602001610fdc565b50506000910152565b602081526000825180602084015261101c816040850160208701610fd9565b601f01601f19169190910160400192915050565b60006020828403121561104257600080fd5b5035919050565b80356001600160a01b038116811461106057600080fd5b919050565b6000806040838503121561107857600080fd5b61108183611049565b946020939093013593505050565b6000806000606084860312156110a457600080fd5b6110ad84611049565b92506110bb60208501611049565b9150604084013590509250925092565b6000602082840312156110dd57600080fd5b610e0a82611049565b60008083601f8401126110f857600080fd5b50813567ffffffffffffffff81111561111057600080fd5b60208301915083602082850101111561112857600080fd5b9250929050565b6000806000806040858703121561114557600080fd5b843567ffffffffffffffff8082111561115d57600080fd5b611169888389016110e6565b9096509450602087013591508082111561118257600080fd5b5061118f878288016110e6565b95989497509550505050565b600080604083850312156111ae57600080fd5b6111b783611049565b9150602083013580151581146111cc57600080fd5b809150509250929050565b634e487b7160e01b600052604160045260246000fd5b6000806000806080858703121561120357600080fd5b61120c85611049565b935061121a60208601611049565b925060408501359150606085013567ffffffffffffffff8082111561123e57600080fd5b818701915087601f83011261125257600080fd5b813581811115611264576112646111d7565b604051601f8201601f19908116603f0116810190838211818310171561128c5761128c6111d7565b816040528281528a60208487010111156112a557600080fd5b82602086016020830137600060208483010152809550505050505092959194509250565b600080604083850312156112dc57600080fd5b6112e583611049565b91506112f360208401611049565b90509250929050565b600181811c9082168061131057607f821691505b60208210810361133057634e487b7160e01b600052602260045260246000fd5b50919050565b8183823760009101908152919050565b60008351611358818460208801610fd9565b83519083019061136c818360208801610fd9565b01949350505050565b634e487b7160e01b600052601160045260246000fd5b8082018082111561032d5761032d611375565b601f82111561051f57600081815260208120601f850160051c810160208610156113c55750805b601f850160051c820191505b818110156113e4578281556001016113d1565b505050505050565b815167ffffffffffffffff811115611406576114066111d7565b61141a8161141484546112fc565b8461139e565b602080601f83116001811461144f57600084156114375750858301515b600019600386901b1c1916600185901b1785556113e4565b600085815260208120601f198616915b8281101561147e5788860151825594840194600190910190840161145f565b508582101561149c5787850151600019600388901b60f8161c191681555b5050505050600190811b01905550565b6000600182016114be576114be611375565b5060010190565b634e487b7160e01b600052601260045260246000fd5b6000826114ea576114ea6114c5565b500490565b8181038181111561032d5761032d611375565b600082611511576115116114c5565b500690565b634e487b7160e01b600052603260045260246000fdfea264697066735822122000d2c679eb3c3c81437d42fac4b06a7804771713dfb4e9cebea549fe7dc85efd64736f6c63430008110033",
    "sourcePath": "/home/jeegeet/Project/experiments/projects/mufi/HardHat1/contracts/AudioSampleManager.sol",
    "compiler": {
        "name": "solc",
        "version": "0.8.17+commit.8df45f5f"
    },
    "functionHashes": {
        "approve(address,uint256)": "095ea7b3",
        "balanceOf(address)": "70a08231",
        "getApproved(uint256)": "081812fc",
        "isApprovedForAll(address,address)": "e985e9c5",
        "mint(string,string)": "8aa0fdad",
        "name()": "06fdde03",
        "owner()": "8da5cb5b",
        "ownerOf(uint256)": "6352211e",
        "pause()": "8456cb59",
        "paused()": "5c975abb",
        "renounceOwnership()": "715018a6",
        "safeTransferFrom(address,address,uint256)": "42842e0e",
        "safeTransferFrom(address,address,uint256,bytes)": "b88d4fde",
        "setApprovalForAll(address,bool)": "a22cb465",
        "supportsInterface(bytes4)": "01ffc9a7",
        "symbol()": "95d89b41",
        "tokenURI(uint256)": "c87b56dd",
        "transferFrom(address,address,uint256)": "23b872dd",
        "transferOwnership(address)": "f2fde38b",
        "unpause()": "3f4ba83a"
    },
    "gasEstimates": {
        "creation": {
            "codeDepositCost": "1094800",
            "executionCost": "infinite",
            "totalCost": "infinite"
        },
        "external": {
            "approve(address,uint256)": "infinite",
            "balanceOf(address)": "2700",
            "getApproved(uint256)": "4792",
            "isApprovedForAll(address,address)": "infinite",
            "mint(string,string)": "infinite",
            "name()": "infinite",
            "owner()": "2420",
            "ownerOf(uint256)": "2627",
            "pause()": "infinite",
            "paused()": "2377",
            "renounceOwnership()": "infinite",
            "safeTransferFrom(address,address,uint256)": "infinite",
            "safeTransferFrom(address,address,uint256,bytes)": "infinite",
            "setApprovalForAll(address,bool)": "26705",
            "supportsInterface(bytes4)": "505",
            "symbol()": "infinite",
            "tokenURI(uint256)": "infinite",
            "transferFrom(address,address,uint256)": "infinite",
            "transferOwnership(address)": "28443",
            "unpause()": "infinite"
        },
        "internal": {
            "_baseURI()": "infinite",
            "_burn(uint256)": "infinite"
        }
    }
}